{
  "contractName": "JagerGitClient",
  "abi": [
    {
      "constant": true,
      "inputs": [
        {
          "name": "",
          "type": "address"
        },
        {
          "name": "",
          "type": "uint256"
        }
      ],
      "name": "meister_bounty_ids",
      "outputs": [
        {
          "name": "",
          "type": "uint256"
        }
      ],
      "payable": false,
      "stateMutability": "view",
      "type": "function"
    },
    {
      "constant": true,
      "inputs": [],
      "name": "ERC20Interface",
      "outputs": [
        {
          "name": "",
          "type": "address"
        }
      ],
      "payable": false,
      "stateMutability": "view",
      "type": "function"
    },
    {
      "constant": true,
      "inputs": [
        {
          "name": "",
          "type": "uint256"
        }
      ],
      "name": "allMeisters",
      "outputs": [
        {
          "name": "",
          "type": "address"
        }
      ],
      "payable": false,
      "stateMutability": "view",
      "type": "function"
    },
    {
      "constant": true,
      "inputs": [
        {
          "name": "",
          "type": "uint256"
        }
      ],
      "name": "allBounties",
      "outputs": [
        {
          "name": "id",
          "type": "uint256"
        },
        {
          "name": "repo_link",
          "type": "string"
        },
        {
          "name": "tag",
          "type": "string"
        },
        {
          "name": "reward_amount",
          "type": "uint256"
        },
        {
          "name": "active",
          "type": "bool"
        },
        {
          "name": "title",
          "type": "string"
        },
        {
          "name": "description",
          "type": "string"
        }
      ],
      "payable": false,
      "stateMutability": "view",
      "type": "function"
    },
    {
      "constant": false,
      "inputs": [],
      "name": "renounceOwnership",
      "outputs": [],
      "payable": false,
      "stateMutability": "nonpayable",
      "type": "function"
    },
    {
      "constant": true,
      "inputs": [],
      "name": "owner",
      "outputs": [
        {
          "name": "",
          "type": "address"
        }
      ],
      "payable": false,
      "stateMutability": "view",
      "type": "function"
    },
    {
      "constant": true,
      "inputs": [
        {
          "name": "",
          "type": "bytes32"
        }
      ],
      "name": "tokens",
      "outputs": [
        {
          "name": "",
          "type": "address"
        }
      ],
      "payable": false,
      "stateMutability": "view",
      "type": "function"
    },
    {
      "constant": true,
      "inputs": [
        {
          "name": "",
          "type": "uint256"
        }
      ],
      "name": "transactions",
      "outputs": [
        {
          "name": "contract_",
          "type": "address"
        },
        {
          "name": "to_",
          "type": "address"
        },
        {
          "name": "amount_",
          "type": "uint256"
        },
        {
          "name": "failed_",
          "type": "bool"
        }
      ],
      "payable": false,
      "stateMutability": "view",
      "type": "function"
    },
    {
      "constant": true,
      "inputs": [
        {
          "name": "",
          "type": "address"
        },
        {
          "name": "",
          "type": "uint256"
        }
      ],
      "name": "transactionIndexesToSender",
      "outputs": [
        {
          "name": "",
          "type": "uint256"
        }
      ],
      "payable": false,
      "stateMutability": "view",
      "type": "function"
    },
    {
      "constant": true,
      "inputs": [
        {
          "name": "",
          "type": "uint256"
        }
      ],
      "name": "bounties",
      "outputs": [
        {
          "name": "id",
          "type": "uint256"
        },
        {
          "name": "repo_link",
          "type": "string"
        },
        {
          "name": "tag",
          "type": "string"
        },
        {
          "name": "reward_amount",
          "type": "uint256"
        },
        {
          "name": "active",
          "type": "bool"
        },
        {
          "name": "title",
          "type": "string"
        },
        {
          "name": "description",
          "type": "string"
        }
      ],
      "payable": false,
      "stateMutability": "view",
      "type": "function"
    },
    {
      "constant": false,
      "inputs": [
        {
          "name": "_newOwner",
          "type": "address"
        }
      ],
      "name": "transferOwnership",
      "outputs": [],
      "payable": false,
      "stateMutability": "nonpayable",
      "type": "function"
    },
    {
      "inputs": [],
      "payable": false,
      "stateMutability": "nonpayable",
      "type": "constructor"
    },
    {
      "payable": true,
      "stateMutability": "payable",
      "type": "fallback"
    },
    {
      "anonymous": false,
      "inputs": [
        {
          "indexed": true,
          "name": "from_",
          "type": "address"
        },
        {
          "indexed": true,
          "name": "to_",
          "type": "address"
        },
        {
          "indexed": false,
          "name": "amount_",
          "type": "uint256"
        }
      ],
      "name": "TransferSuccessful",
      "type": "event"
    },
    {
      "anonymous": false,
      "inputs": [
        {
          "indexed": true,
          "name": "from_",
          "type": "address"
        },
        {
          "indexed": true,
          "name": "to_",
          "type": "address"
        },
        {
          "indexed": false,
          "name": "amount_",
          "type": "uint256"
        }
      ],
      "name": "TransferFailed",
      "type": "event"
    },
    {
      "anonymous": false,
      "inputs": [
        {
          "indexed": false,
          "name": "_bounty_id",
          "type": "uint256"
        },
        {
          "indexed": false,
          "name": "_owner",
          "type": "address"
        },
        {
          "indexed": false,
          "name": "_reward",
          "type": "uint256"
        }
      ],
      "name": "NewBounty",
      "type": "event"
    },
    {
      "anonymous": false,
      "inputs": [
        {
          "indexed": true,
          "name": "previousOwner",
          "type": "address"
        }
      ],
      "name": "OwnershipRenounced",
      "type": "event"
    },
    {
      "anonymous": false,
      "inputs": [
        {
          "indexed": true,
          "name": "previousOwner",
          "type": "address"
        },
        {
          "indexed": true,
          "name": "newOwner",
          "type": "address"
        }
      ],
      "name": "OwnershipTransferred",
      "type": "event"
    },
    {
      "anonymous": false,
      "inputs": [
        {
          "indexed": true,
          "name": "id",
          "type": "bytes32"
        }
      ],
      "name": "ChainlinkRequested",
      "type": "event"
    },
    {
      "anonymous": false,
      "inputs": [
        {
          "indexed": true,
          "name": "id",
          "type": "bytes32"
        }
      ],
      "name": "ChainlinkFulfilled",
      "type": "event"
    },
    {
      "anonymous": false,
      "inputs": [
        {
          "indexed": true,
          "name": "id",
          "type": "bytes32"
        }
      ],
      "name": "ChainlinkCancelled",
      "type": "event"
    },
    {
      "constant": false,
      "inputs": [
        {
          "name": "symbol_",
          "type": "bytes32"
        },
        {
          "name": "address_",
          "type": "address"
        }
      ],
      "name": "addNewToken",
      "outputs": [
        {
          "name": "",
          "type": "bool"
        }
      ],
      "payable": false,
      "stateMutability": "nonpayable",
      "type": "function"
    },
    {
      "constant": false,
      "inputs": [
        {
          "name": "symbol_",
          "type": "bytes32"
        }
      ],
      "name": "removeToken",
      "outputs": [
        {
          "name": "",
          "type": "bool"
        }
      ],
      "payable": false,
      "stateMutability": "nonpayable",
      "type": "function"
    },
    {
      "constant": false,
      "inputs": [
        {
          "name": "symbol_",
          "type": "bytes32"
        },
        {
          "name": "to_",
          "type": "address"
        },
        {
          "name": "amount_",
          "type": "uint256"
        }
      ],
      "name": "transferTokens",
      "outputs": [],
      "payable": false,
      "stateMutability": "nonpayable",
      "type": "function"
    },
    {
      "constant": false,
      "inputs": [
        {
          "name": "beneficiary",
          "type": "address"
        }
      ],
      "name": "withdraw",
      "outputs": [],
      "payable": true,
      "stateMutability": "payable",
      "type": "function"
    },
    {
      "constant": false,
      "inputs": [
        {
          "name": "repoLink",
          "type": "string"
        },
        {
          "name": "reward",
          "type": "uint256"
        },
        {
          "name": "PR_tag",
          "type": "string"
        },
        {
          "name": "title",
          "type": "string"
        },
        {
          "name": "description",
          "type": "string"
        }
      ],
      "name": "CreateBounty",
      "outputs": [
        {
          "name": "",
          "type": "bool"
        }
      ],
      "payable": false,
      "stateMutability": "nonpayable",
      "type": "function"
    },
    {
      "constant": true,
      "inputs": [],
      "name": "GetUsers",
      "outputs": [
        {
          "name": "users",
          "type": "address[]"
        }
      ],
      "payable": false,
      "stateMutability": "view",
      "type": "function"
    },
    {
      "constant": true,
      "inputs": [
        {
          "name": "meister",
          "type": "address"
        }
      ],
      "name": "GetMeisterBounties",
      "outputs": [
        {
          "name": "bountyIds",
          "type": "uint256[]"
        }
      ],
      "payable": false,
      "stateMutability": "view",
      "type": "function"
    },
    {
      "constant": true,
      "inputs": [
        {
          "name": "repoLink",
          "type": "string"
        }
      ],
      "name": "GetRepoBounties",
      "outputs": [
        {
          "name": "bountyIds",
          "type": "uint256[]"
        }
      ],
      "payable": false,
      "stateMutability": "view",
      "type": "function"
    },
    {
      "constant": true,
      "inputs": [
        {
          "name": "bountyId",
          "type": "uint256"
        }
      ],
      "name": "GetBountyInfo",
      "outputs": [
        {
          "name": "id",
          "type": "uint256"
        },
        {
          "name": "repoLink",
          "type": "string"
        },
        {
          "name": "tag",
          "type": "string"
        },
        {
          "name": "reward",
          "type": "uint256"
        },
        {
          "name": "active",
          "type": "bool"
        },
        {
          "name": "title",
          "type": "string"
        },
        {
          "name": "description",
          "type": "string"
        }
      ],
      "payable": false,
      "stateMutability": "view",
      "type": "function"
    },
    {
      "constant": true,
      "inputs": [],
      "name": "getChainlinkToken",
      "outputs": [
        {
          "name": "",
          "type": "address"
        }
      ],
      "payable": false,
      "stateMutability": "view",
      "type": "function"
    },
    {
      "constant": false,
      "inputs": [],
      "name": "withdrawLink",
      "outputs": [],
      "payable": false,
      "stateMutability": "nonpayable",
      "type": "function"
    },
    {
      "constant": false,
      "inputs": [
        {
          "name": "_requestId",
          "type": "bytes32"
        },
        {
          "name": "_payment",
          "type": "uint256"
        },
        {
          "name": "_callbackFunctionId",
          "type": "bytes4"
        },
        {
          "name": "_expiration",
          "type": "uint256"
        }
      ],
      "name": "cancelRequest",
      "outputs": [],
      "payable": false,
      "stateMutability": "nonpayable",
      "type": "function"
    }
  ],
  "bytecode": "0x608060405260016004553480156200001657600080fd5b50600033600660006101000a81548173ffffffffffffffffffffffffffffffffffffffff021916908373ffffffffffffffffffffffffffffffffffffffff16021790555062000073620000cd640100000000026401000000009004565b7f44414900000000000000000000000000000000000000000000000000000000009050620000c58173c4375b7de8af5a38a93548eb8453a498222c4ff26200019e640100000000026401000000009004565b5050620002a5565b6200019c73c89bd4e1632d3a43cb03aaad5262cbe4038bc57173ffffffffffffffffffffffffffffffffffffffff166338cc48316040518163ffffffff167c0100000000000000000000000000000000000000000000000000000000028152600401602060405180830381600087803b1580156200014a57600080fd5b505af11580156200015f573d6000803e3d6000fd5b505050506040513d60208110156200017657600080fd5b810190808051906020019092919050505062000261640100000000026401000000009004565b565b6000600660009054906101000a900473ffffffffffffffffffffffffffffffffffffffff1673ffffffffffffffffffffffffffffffffffffffff163373ffffffffffffffffffffffffffffffffffffffff16141515620001fd57600080fd5b8160096000856000191660001916815260200190815260200160002060006101000a81548173ffffffffffffffffffffffffffffffffffffffff021916908373ffffffffffffffffffffffffffffffffffffffff1602179055506001905092915050565b80600260006101000a81548173ffffffffffffffffffffffffffffffffffffffff021916908373ffffffffffffffffffffffffffffffffffffffff16021790555050565b61323580620002b56000396000f300608060405260043610610133576000357c0100000000000000000000000000000000000000000000000000000000900463ffffffff1680630a4767d014610135578063165d35e1146101965780631bbc4b83146101ed5780631f9988c914610244578063224e74621461029f57806351cff8d9146102e857806364bb3e731461031e578063679bbee01461038b578063715018a61461058e5780638830d52b146105a55780638da5cb5b146107a85780638dc654a2146107ff578063904194a3146108165780639ace38c214610887578063b082443b14610939578063c4796437146109a2578063da3eec1914610a03578063dc2f874414610a6f578063e43e8d9914610c72578063ec2bd98114610dcf578063ec65d0f814610e67578063f1c0099a14610ed5578063f2fde38b14610f93575b005b34801561014157600080fd5b50610180600480360381019080803573ffffffffffffffffffffffffffffffffffffffff16906020019092919080359060200190929190505050610fd6565b6040518082815260200191505060405180910390f35b3480156101a257600080fd5b506101ab611006565b604051808273ffffffffffffffffffffffffffffffffffffffff1673ffffffffffffffffffffffffffffffffffffffff16815260200191505060405180910390f35b3480156101f957600080fd5b50610202611015565b604051808273ffffffffffffffffffffffffffffffffffffffff1673ffffffffffffffffffffffffffffffffffffffff16815260200191505060405180910390f35b34801561025057600080fd5b5061029d6004803603810190808035600019169060200190929190803573ffffffffffffffffffffffffffffffffffffffff1690602001909291908035906020019092919050505061103b565b005b3480156102ab57600080fd5b506102ce6004803603810190808035600019169060200190929190505050611652565b604051808215151515815260200191505060405180910390f35b61031c600480360381019080803573ffffffffffffffffffffffffffffffffffffffff169060200190929190505050611758565b005b34801561032a57600080fd5b5061034960048036038101908080359060200190929190505050611815565b604051808273ffffffffffffffffffffffffffffffffffffffff1673ffffffffffffffffffffffffffffffffffffffff16815260200191505060405180910390f35b34801561039757600080fd5b506103b660048036038101908080359060200190929190505050611853565b60405180888152602001806020018060200187815260200186151515158152602001806020018060200185810385528b818151815260200191508051906020019080838360005b838110156104185780820151818401526020810190506103fd565b50505050905090810190601f1680156104455780820380516001836020036101000a031916815260200191505b5085810384528a818151815260200191508051906020019080838360005b8381101561047e578082015181840152602081019050610463565b50505050905090810190601f1680156104ab5780820380516001836020036101000a031916815260200191505b50858103835287818151815260200191508051906020019080838360005b838110156104e45780820151818401526020810190506104c9565b50505050905090810190601f1680156105115780820380516001836020036101000a031916815260200191505b50858103825286818151815260200191508051906020019080838360005b8381101561054a57808201518184015260208101905061052f565b50505050905090810190601f1680156105775780820380516001836020036101000a031916815260200191505b509b50505050505050505050505060405180910390f35b34801561059a57600080fd5b506105a3611b11565b005b3480156105b157600080fd5b506105d060048036038101908080359060200190929190505050611c16565b60405180888152602001806020018060200187815260200186151515158152602001806020018060200185810385528b818151815260200191508051906020019080838360005b83811015610632578082015181840152602081019050610617565b50505050905090810190601f16801561065f5780820380516001836020036101000a031916815260200191505b5085810384528a818151815260200191508051906020019080838360005b8381101561069857808201518184015260208101905061067d565b50505050905090810190601f1680156106c55780820380516001836020036101000a031916815260200191505b50858103835287818151815260200191508051906020019080838360005b838110156106fe5780820151818401526020810190506106e3565b50505050905090810190601f16801561072b5780820380516001836020036101000a031916815260200191505b50858103825286818151815260200191508051906020019080838360005b83811015610764578082015181840152602081019050610749565b50505050905090810190601f1680156107915780820380516001836020036101000a031916815260200191505b509b50505050505050505050505060405180910390f35b3480156107b457600080fd5b506107bd611f54565b604051808273ffffffffffffffffffffffffffffffffffffffff1673ffffffffffffffffffffffffffffffffffffffff16815260200191505060405180910390f35b34801561080b57600080fd5b50610814611f7a565b005b34801561082257600080fd5b50610845600480360381019080803560001916906020019092919050505061220c565b604051808273ffffffffffffffffffffffffffffffffffffffff1673ffffffffffffffffffffffffffffffffffffffff16815260200191505060405180910390f35b34801561089357600080fd5b506108b26004803603810190808035906020019092919050505061223f565b604051808573ffffffffffffffffffffffffffffffffffffffff1673ffffffffffffffffffffffffffffffffffffffff1681526020018473ffffffffffffffffffffffffffffffffffffffff1673ffffffffffffffffffffffffffffffffffffffff1681526020018381526020018215151515815260200194505050505060405180910390f35b34801561094557600080fd5b506109886004803603810190808035600019169060200190929190803573ffffffffffffffffffffffffffffffffffffffff1690602001909291905050506122cb565b604051808215151515815260200191505060405180910390f35b3480156109ae57600080fd5b506109ed600480360381019080803573ffffffffffffffffffffffffffffffffffffffff1690602001909291908035906020019092919050505061238d565b6040518082815260200191505060405180910390f35b348015610a0f57600080fd5b50610a186123bd565b6040518080602001828103825283818151815260200191508051906020019060200280838360005b83811015610a5b578082015181840152602081019050610a40565b505050509050019250505060405180910390f35b348015610a7b57600080fd5b50610a9a6004803603810190808035906020019092919050505061244b565b60405180888152602001806020018060200187815260200186151515158152602001806020018060200185810385528b818151815260200191508051906020019080838360005b83811015610afc578082015181840152602081019050610ae1565b50505050905090810190601f168015610b295780820380516001836020036101000a031916815260200191505b5085810384528a818151815260200191508051906020019080838360005b83811015610b62578082015181840152602081019050610b47565b50505050905090810190601f168015610b8f5780820380516001836020036101000a031916815260200191505b50858103835287818151815260200191508051906020019080838360005b83811015610bc8578082015181840152602081019050610bad565b50505050905090810190601f168015610bf55780820380516001836020036101000a031916815260200191505b50858103825286818151815260200191508051906020019080838360005b83811015610c2e578082015181840152602081019050610c13565b50505050905090810190601f168015610c5b5780820380516001836020036101000a031916815260200191505b509b50505050505050505050505060405180910390f35b348015610c7e57600080fd5b50610db5600480360381019080803590602001908201803590602001908080601f016020809104026020016040519081016040528093929190818152602001838380828437820191505050505050919291929080359060200190929190803590602001908201803590602001908080601f0160208091040260200160405190810160405280939291908181526020018383808284378201915050505050509192919290803590602001908201803590602001908080601f0160208091040260200160405190810160405280939291908181526020018383808284378201915050505050509192919290803590602001908201803590602001908080601f01602080910402602001604051908101604052809392919081815260200183838082843782019150505050505091929192905050506126fa565b604051808215151515815260200191505060405180910390f35b348015610ddb57600080fd5b50610e10600480360381019080803573ffffffffffffffffffffffffffffffffffffffff169060200190929190505050612bcb565b6040518080602001828103825283818151815260200191508051906020019060200280838360005b83811015610e53578082015181840152602081019050610e38565b505050509050019250505060405180910390f35b348015610e7357600080fd5b50610ed360048036038101908080356000191690602001909291908035906020019092919080357bffffffffffffffffffffffffffffffffffffffffffffffffffffffff1916906020019092919080359060200190929190505050612c62565b005b348015610ee157600080fd5b50610f3c600480360381019080803590602001908201803590602001908080601f0160208091040260200160405190810160405280939291908181526020018383808284378201915050505050509192919290505050612cd0565b6040518080602001828103825283818151815260200191508051906020019060200280838360005b83811015610f7f578082015181840152602081019050610f64565b505050509050019250505060405180910390f35b348015610f9f57600080fd5b50610fd4600480360381019080803573ffffffffffffffffffffffffffffffffffffffff169060200190929190505050612d93565b005b600f60205281600052604060002081815481101515610ff157fe5b90600052602060002001600091509150505481565b6000611010612dfb565b905090565b600a60009054906101000a900473ffffffffffffffffffffffffffffffffffffffff1681565b60008060008060096000886000191660001916815260200190815260200160002060009054906101000a900473ffffffffffffffffffffffffffffffffffffffff1673ffffffffffffffffffffffffffffffffffffffff16141515156110a057600080fd5b6000841115156110af57600080fd5b60096000876000191660001916815260200190815260200160002060009054906101000a900473ffffffffffffffffffffffffffffffffffffffff16925033915082600a60006101000a81548173ffffffffffffffffffffffffffffffffffffffff021916908373ffffffffffffffffffffffffffffffffffffffff160217905550600b6080604051908101604052808573ffffffffffffffffffffffffffffffffffffffff1681526020018773ffffffffffffffffffffffffffffffffffffffff168152602001868152602001600115158152509080600181540180825580915050906001820390600052602060002090600402016000909192909190915060008201518160000160006101000a81548173ffffffffffffffffffffffffffffffffffffffff021916908373ffffffffffffffffffffffffffffffffffffffff16021790555060208201518160010160006101000a81548173ffffffffffffffffffffffffffffffffffffffff021916908373ffffffffffffffffffffffffffffffffffffffff1602179055506040820151816002015560608201518160030160006101000a81548160ff02191690831515021790555050509050600760008373ffffffffffffffffffffffffffffffffffffffff1673ffffffffffffffffffffffffffffffffffffffff168152602001908152602001600020600182039080600181540180825580915050906001820390600052602060002001600090919290919091505550600a60009054906101000a900473ffffffffffffffffffffffffffffffffffffffff1673ffffffffffffffffffffffffffffffffffffffff1663dd62ed3e83306040518363ffffffff167c0100000000000000000000000000000000000000000000000000000000028152600401808373ffffffffffffffffffffffffffffffffffffffff1673ffffffffffffffffffffffffffffffffffffffff1681526020018273ffffffffffffffffffffffffffffffffffffffff1673ffffffffffffffffffffffffffffffffffffffff16815260200192505050602060405180830381600087803b1580156113c857600080fd5b505af11580156113dc573d6000803e3d6000fd5b505050506040513d60208110156113f257600080fd5b8101908080519060200190929190505050841115611474578473ffffffffffffffffffffffffffffffffffffffff168273ffffffffffffffffffffffffffffffffffffffff167fbf182be802245e8ed88e4b8d3e4344c0863dd2a70334f089fd07265389306fcf866040518082815260200191505060405180910390a3600080fd5b600a60009054906101000a900473ffffffffffffffffffffffffffffffffffffffff1673ffffffffffffffffffffffffffffffffffffffff166323b872dd8387876040518463ffffffff167c0100000000000000000000000000000000000000000000000000000000028152600401808473ffffffffffffffffffffffffffffffffffffffff1673ffffffffffffffffffffffffffffffffffffffff1681526020018373ffffffffffffffffffffffffffffffffffffffff1673ffffffffffffffffffffffffffffffffffffffff1681526020018281526020019350505050602060405180830381600087803b15801561156d57600080fd5b505af1158015611581573d6000803e3d6000fd5b505050506040513d602081101561159757600080fd5b8101908080519060200190929190505050506000600b600183038154811015156115bd57fe5b906000526020600020906004020160030160006101000a81548160ff0219169083151502179055508473ffffffffffffffffffffffffffffffffffffffff168273ffffffffffffffffffffffffffffffffffffffff167fd6d3eb25a413c05d8107fc49deb2789bef7f612582b2482804c0b0423b6638ee866040518082815260200191505060405180910390a3505050505050565b6000600660009054906101000a900473ffffffffffffffffffffffffffffffffffffffff1673ffffffffffffffffffffffffffffffffffffffff163373ffffffffffffffffffffffffffffffffffffffff161415156116b057600080fd5b600060096000846000191660001916815260200190815260200160002060009054906101000a900473ffffffffffffffffffffffffffffffffffffffff1673ffffffffffffffffffffffffffffffffffffffff161415151561171157600080fd5b60096000836000191660001916815260200190815260200160002060006101000a81549073ffffffffffffffffffffffffffffffffffffffff021916905560019050919050565b600660009054906101000a900473ffffffffffffffffffffffffffffffffffffffff1673ffffffffffffffffffffffffffffffffffffffff163373ffffffffffffffffffffffffffffffffffffffff161415156117b457600080fd5b8073ffffffffffffffffffffffffffffffffffffffff166108fc3073ffffffffffffffffffffffffffffffffffffffff16319081150290604051600060405180830381858888f19350505050158015611811573d6000803e3d6000fd5b5050565b600e8181548110151561182457fe5b906000526020600020016000915054906101000a900473ffffffffffffffffffffffffffffffffffffffff1681565b600d8181548110151561186257fe5b9060005260206000209060070201600091509050806000015490806001018054600181600116156101000203166002900480601f0160208091040260200160405190810160405280929190818152602001828054600181600116156101000203166002900480156119145780601f106118e957610100808354040283529160200191611914565b820191906000526020600020905b8154815290600101906020018083116118f757829003601f168201915b505050505090806002018054600181600116156101000203166002900480601f0160208091040260200160405190810160405280929190818152602001828054600181600116156101000203166002900480156119b25780601f10611987576101008083540402835291602001916119b2565b820191906000526020600020905b81548152906001019060200180831161199557829003601f168201915b5050505050908060030154908060040160009054906101000a900460ff1690806005018054600181600116156101000203166002900480601f016020809104026020016040519081016040528092919081815260200182805460018160011615610100020316600290048015611a695780601f10611a3e57610100808354040283529160200191611a69565b820191906000526020600020905b815481529060010190602001808311611a4c57829003601f168201915b505050505090806006018054600181600116156101000203166002900480601f016020809104026020016040519081016040528092919081815260200182805460018160011615610100020316600290048015611b075780601f10611adc57610100808354040283529160200191611b07565b820191906000526020600020905b815481529060010190602001808311611aea57829003601f168201915b5050505050905087565b600660009054906101000a900473ffffffffffffffffffffffffffffffffffffffff1673ffffffffffffffffffffffffffffffffffffffff163373ffffffffffffffffffffffffffffffffffffffff16141515611b6d57600080fd5b600660009054906101000a900473ffffffffffffffffffffffffffffffffffffffff1673ffffffffffffffffffffffffffffffffffffffff167ff8df31144d9c2f0f6b59d69b8b98abd5459d07f2742c4df920b25aae33c6482060405160405180910390a26000600660006101000a81548173ffffffffffffffffffffffffffffffffffffffff021916908373ffffffffffffffffffffffffffffffffffffffff160217905550565b6000606080600080606080611c29613124565b600d89815481101515611c3857fe5b906000526020600020906007020160e0604051908101604052908160008201548152602001600182018054600181600116156101000203166002900480601f016020809104026020016040519081016040528092919081815260200182805460018160011615610100020316600290048015611cf55780601f10611cca57610100808354040283529160200191611cf5565b820191906000526020600020905b815481529060010190602001808311611cd857829003601f168201915b50505050508152602001600282018054600181600116156101000203166002900480601f016020809104026020016040519081016040528092919081815260200182805460018160011615610100020316600290048015611d975780601f10611d6c57610100808354040283529160200191611d97565b820191906000526020600020905b815481529060010190602001808311611d7a57829003601f168201915b50505050508152602001600382015481526020016004820160009054906101000a900460ff16151515158152602001600582018054600181600116156101000203166002900480601f016020809104026020016040519081016040528092919081815260200182805460018160011615610100020316600290048015611e5e5780601f10611e3357610100808354040283529160200191611e5e565b820191906000526020600020905b815481529060010190602001808311611e4157829003601f168201915b50505050508152602001600682018054600181600116156101000203166002900480601f016020809104026020016040519081016040528092919081815260200182805460018160011615610100020316600290048015611f005780601f10611ed557610100808354040283529160200191611f00565b820191906000526020600020905b815481529060010190602001808311611ee357829003601f168201915b5050505050815250509050806000015181602001518260400151836060015184608001518560a001518660c00151859550849450819150809050975097509750975097509750975050919395979092949650565b600860009054906101000a900473ffffffffffffffffffffffffffffffffffffffff1681565b6000600660009054906101000a900473ffffffffffffffffffffffffffffffffffffffff1673ffffffffffffffffffffffffffffffffffffffff163373ffffffffffffffffffffffffffffffffffffffff16141515611fd857600080fd5b611fe0612dfb565b90508073ffffffffffffffffffffffffffffffffffffffff1663a9059cbb338373ffffffffffffffffffffffffffffffffffffffff166370a08231306040518263ffffffff167c0100000000000000000000000000000000000000000000000000000000028152600401808273ffffffffffffffffffffffffffffffffffffffff1673ffffffffffffffffffffffffffffffffffffffff168152602001915050602060405180830381600087803b15801561209a57600080fd5b505af11580156120ae573d6000803e3d6000fd5b505050506040513d60208110156120c457600080fd5b81019080805190602001909291905050506040518363ffffffff167c0100000000000000000000000000000000000000000000000000000000028152600401808373ffffffffffffffffffffffffffffffffffffffff1673ffffffffffffffffffffffffffffffffffffffff16815260200182815260200192505050602060405180830381600087803b15801561215a57600080fd5b505af115801561216e573d6000803e3d6000fd5b505050506040513d602081101561218457600080fd5b81019080805190602001909291905050501515612209576040517f08c379a00000000000000000000000000000000000000000000000000000000081526004018080602001828103825260128152602001807f556e61626c6520746f207472616e73666572000000000000000000000000000081525060200191505060405180910390fd5b50565b60096020528060005260406000206000915054906101000a900473ffffffffffffffffffffffffffffffffffffffff1681565b600b8181548110151561224e57fe5b90600052602060002090600402016000915090508060000160009054906101000a900473ffffffffffffffffffffffffffffffffffffffff16908060010160009054906101000a900473ffffffffffffffffffffffffffffffffffffffff16908060020154908060030160009054906101000a900460ff16905084565b6000600660009054906101000a900473ffffffffffffffffffffffffffffffffffffffff1673ffffffffffffffffffffffffffffffffffffffff163373ffffffffffffffffffffffffffffffffffffffff1614151561232957600080fd5b8160096000856000191660001916815260200190815260200160002060006101000a81548173ffffffffffffffffffffffffffffffffffffffff021916908373ffffffffffffffffffffffffffffffffffffffff1602179055506001905092915050565b6007602052816000526040600020818154811015156123a857fe5b90600052602060002001600091509150505481565b6060600e80548060200260200160405190810160405280929190818152602001828054801561244157602002820191906000526020600020905b8160009054906101000a900473ffffffffffffffffffffffffffffffffffffffff1673ffffffffffffffffffffffffffffffffffffffff16815260200190600101908083116123f7575b5050505050905090565b6011602052806000526040600020600091509050806000015490806001018054600181600116156101000203166002900480601f0160208091040260200160405190810160405280929190818152602001828054600181600116156101000203166002900480156124fd5780601f106124d2576101008083540402835291602001916124fd565b820191906000526020600020905b8154815290600101906020018083116124e057829003601f168201915b505050505090806002018054600181600116156101000203166002900480601f01602080910402602001604051908101604052809291908181526020018280546001816001161561010002031660029004801561259b5780601f106125705761010080835404028352916020019161259b565b820191906000526020600020905b81548152906001019060200180831161257e57829003601f168201915b5050505050908060030154908060040160009054906101000a900460ff1690806005018054600181600116156101000203166002900480601f0160208091040260200160405190810160405280929190818152602001828054600181600116156101000203166002900480156126525780601f1061262757610100808354040283529160200191612652565b820191906000526020600020905b81548152906001019060200180831161263557829003601f168201915b505050505090806006018054600181600116156101000203166002900480601f0160208091040260200160405190810160405280929190818152602001828054600181600116156101000203166002900480156126f05780601f106126c5576101008083540402835291602001916126f0565b820191906000526020600020905b8154815290600101906020018083116126d357829003601f168201915b5050505050905087565b6000612704613124565b600080600060e060405190810160405280600d8054905081526020018b81526020018981526020018a815260200160011515815260200188815260200187815250935060108a6040518082805190602001908083835b60208310151561277f578051825260208201915060208101905060208303925061275a565b6001836020036101000a038019825116818451168082178552505050505050905001915050908152602001604051809103902080549050925060008314151561298657600091505b828210156129855760108a6040518082805190602001908083835b60208310151561280757805182526020820191506020810190506020830392506127e2565b6001836020036101000a03801982511681845116808217855250505050505090500191505090815260200160405180910390208281548110151561284757fe5b90600052602060002001549050876040518082805190602001908083835b60208310151561288a5780518252602082019150602081019050602083039250612865565b6001836020036101000a03801982511681845116808217855250505050505090500191505060405180910390206000191660116000838152602001908152602001600020600201604051808280546001816001161561010002031660029004801561292c5780601f1061290a57610100808354040283529182019161292c565b820191906000526020600020905b815481529060010190602001808311612918575b505091505060405180910390206000191614801561296a57506011600082815260200190815260200160002060040160009054906101000a900460ff165b156129785760009450612bbe565b81806001019250506127c7565b5b60108a6040518082805190602001908083835b6020831015156129be5780518252602082019150602081019050602083039250612999565b6001836020036101000a0380198251168184511680821785525050505050509050019150509081526020016040518091039020846000015190806001815401808255809150509060018203906000526020600020016000909192909190915055506000600f60003373ffffffffffffffffffffffffffffffffffffffff1673ffffffffffffffffffffffffffffffffffffffff168152602001908152602001600020805490501415612a7357612a72612e25565b5b600f60003373ffffffffffffffffffffffffffffffffffffffff1673ffffffffffffffffffffffffffffffffffffffff16815260200190815260200160002084600001519080600181540180825580915050906001820390600052602060002001600090919290919091505550600d8490806001815401808255809150509060018203906000526020600020906007020160009091929091909150600082015181600001556020820151816001019080519060200190612b34929190613164565b506040820151816002019080519060200190612b51929190613164565b506060820151816003015560808201518160040160006101000a81548160ff02191690831515021790555060a0820151816005019080519060200190612b98929190613164565b5060c0820151816006019080519060200190612bb5929190613164565b50505050600194505b5050505095945050505050565b6060600f60008373ffffffffffffffffffffffffffffffffffffffff1673ffffffffffffffffffffffffffffffffffffffff168152602001908152602001600020805480602002602001604051908101604052809291908181526020018280548015612c5657602002820191906000526020600020905b815481526020019060010190808311612c42575b50505050509050919050565b600660009054906101000a900473ffffffffffffffffffffffffffffffffffffffff1673ffffffffffffffffffffffffffffffffffffffff163373ffffffffffffffffffffffffffffffffffffffff16141515612cbe57600080fd5b612cca84848484612e8d565b50505050565b60606010826040518082805190602001908083835b602083101515612d0a5780518252602082019150602081019050602083039250612ce5565b6001836020036101000a0380198251168184511680821785525050505050509050019150509081526020016040518091039020805480602002602001604051908101604052809291908181526020018280548015612d8757602002820191906000526020600020905b815481526020019060010190808311612d73575b50505050509050919050565b600660009054906101000a900473ffffffffffffffffffffffffffffffffffffffff1673ffffffffffffffffffffffffffffffffffffffff163373ffffffffffffffffffffffffffffffffffffffff16141515612def57600080fd5b612df881613028565b50565b6000600260009054906101000a900473ffffffffffffffffffffffffffffffffffffffff16905090565b600e3390806001815401808255809150509060018203906000526020600020016000909192909190916101000a81548173ffffffffffffffffffffffffffffffffffffffff021916908373ffffffffffffffffffffffffffffffffffffffff16021790555050565b600060056000866000191660001916815260200190815260200160002060009054906101000a900473ffffffffffffffffffffffffffffffffffffffff16905060056000866000191660001916815260200190815260200160002060006101000a81549073ffffffffffffffffffffffffffffffffffffffff021916905584600019167fe1fe3afa0f7f761ff0a8b89086790efd5140d2907ebd5b7ff6bfcb5e075fd4c560405160405180910390a28073ffffffffffffffffffffffffffffffffffffffff16636ee4d553868686866040518563ffffffff167c0100000000000000000000000000000000000000000000000000000000028152600401808560001916600019168152602001848152602001837bffffffffffffffffffffffffffffffffffffffffffffffffffffffff19167bffffffffffffffffffffffffffffffffffffffffffffffffffffffff19168152602001828152602001945050505050600060405180830381600087803b15801561300957600080fd5b505af115801561301d573d6000803e3d6000fd5b505050505050505050565b600073ffffffffffffffffffffffffffffffffffffffff168173ffffffffffffffffffffffffffffffffffffffff161415151561306457600080fd5b8073ffffffffffffffffffffffffffffffffffffffff16600660009054906101000a900473ffffffffffffffffffffffffffffffffffffffff1673ffffffffffffffffffffffffffffffffffffffff167f8be0079c531659141344cd1fd0a4f28419497f9722a3daafe3b4186f6b6457e060405160405180910390a380600660006101000a81548173ffffffffffffffffffffffffffffffffffffffff021916908373ffffffffffffffffffffffffffffffffffffffff16021790555050565b60e0604051908101604052806000815260200160608152602001606081526020016000815260200160001515815260200160608152602001606081525090565b828054600181600116156101000203166002900490600052602060002090601f016020900481019282601f106131a557805160ff19168380011785556131d3565b828001600101855582156131d3579182015b828111156131d25782518255916020019190600101906131b7565b5b5090506131e091906131e4565b5090565b61320691905b808211156132025760008160009055506001016131ea565b5090565b905600a165627a7a723058203070be31d217109e0ab1ad4a56e71549d9376aa57aa987308c5e7d906fe67dec0029",
  "source": "pragma solidity >=0.4.0 <0.7.0;\n\nimport \"@chainlink/contracts/src/v0.4/ChainlinkClient.sol\";\nimport \"@chainlink/contracts/src/v0.4/vendor/Ownable.sol\";\nimport \"openzeppelin-solidity/contracts/token/ERC20/ERC20.sol\";\n\ncontract JagerGitClient is ChainlinkClient, Ownable {\n  uint256 constant private ORACLE_PAYMENT = 1 * LINK;\n\n  /**  \n  * @dev Details of each transfer  \n  * @param contract_ contract address of ER20 token to transfer  \n  * @param to_ receiving account  \n  * @param amount_ number of tokens to transfer to_ account  \n  * @param failed_ if transfer was successful or not  \n  */  \n  struct Transfer {  \n    address contract_;  \n    address to_;  \n    uint amount_;  \n    bool failed_;  \n  }\n\n  /**  \n  * @dev a mapping from transaction ID's to the sender address  \n  * that initiates them. Owners can create several transactions  \n  */  \n  mapping(address => uint[]) public transactionIndexesToSender;\n  /**  \n  * @dev a list of all transfers successful or unsuccessful  \n  */  \n\n  address public owner;  \n  \n  /**  \n  * @dev list of all supported tokens for transfer  \n  * @param string token symbol  \n  * @param address contract address of token  \n  */  \n  mapping(bytes32 => address) public tokens; \n\n  ERC20 public ERC20Interface;\n\n  Transfer[] public transactions;\n\n  /**  \n  * @dev Event to notify if transfer successful or failed  \n  * after account approval verified  \n  */  \n  event TransferSuccessful(address indexed from_, address indexed to_, uint256 amount_);  \n  \n  event TransferFailed(address indexed from_, address indexed to_, uint256 amount_);\n\n  /**  \n  * @dev add address of token to list of supported tokens using  \n  * token symbol as identifier in mapping  \n  */  \n  function addNewToken(bytes32 symbol_, address address_) public onlyOwner returns (bool) {  \n    tokens[symbol_] = address_;  \n    \n    return true;  \n  }  \n    \n  /**  \n  * @dev remove address of token we no more support  \n  */  \n  function removeToken(bytes32 symbol_) public onlyOwner returns (bool) {  \n    require(tokens[symbol_] != 0x0);  \n  \n    delete(tokens[symbol_]);  \n    \n    return true;  \n  }  \n    \n  /**  \n  * @dev method that handles transfer of ERC20 tokens to other address  \n  * it assumes the calling address has approved this contract  \n  * as spender  \n  * @param symbol_ identifier mapping to a token contract address  \n  * @param to_ beneficiary address  \n  * @param amount_ numbers of token to transfer  \n  */  \n  function transferTokens(bytes32 symbol_, address to_, uint256 amount_) public {  \n    require(tokens[symbol_] != 0x0);  \n    require(amount_ > 0);  \n    \n    address contract_ = tokens[symbol_];  \n    address from_ = msg.sender;  \n  \n    ERC20Interface = ERC20(contract_);  \n    \n    uint256 transactionId = transactions.push(  \n    Transfer({  \n    contract_:  contract_,  \n          to_: to_,  \n          amount_: amount_,  \n          failed_: true  \n    })  \n  );  \n    transactionIndexesToSender[from_].push(transactionId - 1);  \n    \n    if(amount_ > ERC20Interface.allowance(from_, address(this))) {  \n    emit TransferFailed(from_, to_, amount_);  \n    revert();  \n  }  \n    ERC20Interface.transferFrom(from_, to_, amount_);  \n    \n    transactions[transactionId - 1].failed_ = false;  \n    \n    emit TransferSuccessful(from_, to_, amount_);  \n  }  \n    \n  /**  \n  * @dev withdraw funds from this contract  \n  * @param beneficiary address to receive ether  \n  */  \n  function withdraw(address beneficiary) public payable onlyOwner {  \n    beneficiary.transfer(address(this).balance);  \n  }\n\n  /**  \n  * @dev allow contract to receive funds  \n  */  \n  function() public payable {}  \n\n  uint256 reward_pool;\n  \n  struct Bounty {\n      uint id;\n      string repo_link;\n      string tag;\n      uint reward_amount;\n      bool active;\n      string title;\n      string description;\n  }\n  \n  struct Meister {\n      address id;\n      uint bounties_fulfilled;\n  }\n  \n  Bounty[] public allBounties;\n  address[] public allMeisters;\n  \n  mapping (address => uint[]) public meister_bounty_ids;\n  mapping (string => uint[]) private repo_bounties;\n  mapping (uint => Bounty) public bounties;\n  \n  event NewBounty(uint _bounty_id, address _owner, uint _reward);\n\n  constructor() public {\n    setPublicChainlinkToken();\n    bytes32 b = \"DAI\";\n    addNewToken(b, address(0xC4375B7De8af5a38a93548eb8453a498222C4fF2));\n  }\n  \n  function AddNewMeister() private {\n      allMeisters.push(msg.sender);\n  }\n  \n  function CreateBounty(string memory repoLink, \n                        uint reward, \n                        string PR_tag,\n                        string title,\n                        string description) public returns (bool) {\n      Bounty memory bounty = Bounty({\n          id: allBounties.length,\n          repo_link: repoLink,\n          tag: PR_tag,\n          reward_amount: reward,\n          active: true,\n          title: title,\n          description: description\n      }); \n\n      uint len = repo_bounties[repoLink].length;\n\n      if(len != 0) {\n        for(uint i = 0; i < len; i++) {\n          uint id = repo_bounties[repoLink][i];\n          if(keccak256(bytes(bounties[id].tag)) == \n             keccak256(bytes(PR_tag)) && bounties[id].active) {\n            return false;\n          }\n        }\n      }\n\n      repo_bounties[repoLink].push(bounty.id);\n\n      if (meister_bounty_ids[msg.sender].length == 0) {\n          AddNewMeister();\n      }\n\n      meister_bounty_ids[msg.sender].push(bounty.id);\n      allBounties.push(bounty);\n      return true;\n  }\n  \n  function GetUsers() public view returns (address[] memory users) {\n      return allMeisters;\n  }\n  \n  function GetMeisterBounties(address meister) public view returns (uint[] memory bountyIds) {\n      return meister_bounty_ids[meister];\n  }\n\n  function GetRepoBounties(string repoLink) public view returns (uint[] memory bountyIds) {\n      return repo_bounties[repoLink];\n  }\n  \n  function GetBountyInfo(uint bountyId) public view returns (uint id, \n                                                        string memory repoLink, \n                                                        string memory tag, \n                                                        uint reward, \n                                                        bool active,\n                                                        string memory title,\n                                                        string memory description) {\n      Bounty memory bounty = allBounties[bountyId];\n      return (bounty.id, \n              bounty.repo_link, \n              bounty.tag, \n              bounty.reward_amount, \n              bounty.active,\n              bounty.title,\n              bounty.description);\n  }\n  \n\n  function getChainlinkToken() public view returns (address) {\n    return chainlinkTokenAddress();\n  }\n\n  function withdrawLink() public onlyOwner {\n    LinkTokenInterface link = LinkTokenInterface(chainlinkTokenAddress());\n    require(link.transfer(msg.sender, link.balanceOf(address(this))), \"Unable to transfer\");\n  }\n\n  function cancelRequest(\n    bytes32 _requestId,\n    uint256 _payment,\n    bytes4 _callbackFunctionId,\n    uint256 _expiration\n  )\n    public\n    onlyOwner\n  {\n    cancelChainlinkRequest(_requestId, _payment, _callbackFunctionId, _expiration);\n  }\n\n  function stringToBytes32(string memory source) private pure returns (bytes32 result) {\n    bytes memory tempEmptyStringTest = bytes(source);\n    if (tempEmptyStringTest.length == 0) {\n      return 0x0;\n    }\n\n    assembly { // solhint-disable-line no-inline-assembly\n      result := mload(add(source, 32))\n    }\n  }\n\n}\n",
  "sourcePath": "C:/Users/parke/Desktop/programming/mock/contracts/JagerGitClient.sol",
  "compiler": {
    "name": "solc",
    "version": "0.4.24+commit.e67f0147.Emscripten.clang"
  },
  "schemaVersion": "3.2.3",
  "updatedAt": "2020-09-24T02:01:23.059Z",
  "networkType": "ethereum",
  "devdoc": {
    "methods": {
      "addNewToken(bytes32,address)": {
        "details": "add address of token to list of supported tokens using   token symbol as identifier in mapping  "
      },
      "removeToken(bytes32)": {
        "details": "remove address of token we no more support  "
      },
      "renounceOwnership()": {
        "details": "Allows the current owner to relinquish control of the contract."
      },
      "transferOwnership(address)": {
        "details": "Allows the current owner to transfer control of the contract to a newOwner.",
        "params": {
          "_newOwner": "The address to transfer ownership to."
        }
      },
      "transferTokens(bytes32,address,uint256)": {
        "details": "method that handles transfer of ERC20 tokens to other address   it assumes the calling address has approved this contract   as spender  ",
        "params": {
          "amount_": "numbers of token to transfer  ",
          "symbol_": "identifier mapping to a token contract address  ",
          "to_": "beneficiary address  "
        }
      },
      "withdraw(address)": {
        "details": "withdraw funds from this contract  ",
        "params": {
          "beneficiary": "address to receive ether  "
        }
      }
    }
  },
  "userdoc": {
    "methods": {
      "renounceOwnership()": {
        "notice": "Renouncing to ownership will leave the contract without an owner. It will not be possible to call the functions with the `onlyOwner` modifier anymore."
      }
    }
  }
}