{
  "contractName": "JagerGitClient",
  "abi": [
    {
      "constant": true,
      "inputs": [
        {
          "name": "",
          "type": "address"
        },
        {
          "name": "",
          "type": "uint256"
        }
      ],
      "name": "meister_bounty_ids",
      "outputs": [
        {
          "name": "",
          "type": "uint256"
        }
      ],
      "payable": false,
      "stateMutability": "view",
      "type": "function"
    },
    {
      "constant": true,
      "inputs": [],
      "name": "ERC20Interface",
      "outputs": [
        {
          "name": "",
          "type": "address"
        }
      ],
      "payable": false,
      "stateMutability": "view",
      "type": "function"
    },
    {
      "constant": true,
      "inputs": [
        {
          "name": "",
          "type": "uint256"
        }
      ],
      "name": "allMeisters",
      "outputs": [
        {
          "name": "",
          "type": "address"
        }
      ],
      "payable": false,
      "stateMutability": "view",
      "type": "function"
    },
    {
      "constant": false,
      "inputs": [],
      "name": "renounceOwnership",
      "outputs": [],
      "payable": false,
      "stateMutability": "nonpayable",
      "type": "function"
    },
    {
      "constant": true,
      "inputs": [],
      "name": "owner",
      "outputs": [
        {
          "name": "",
          "type": "address"
        }
      ],
      "payable": false,
      "stateMutability": "view",
      "type": "function"
    },
    {
      "constant": true,
      "inputs": [
        {
          "name": "",
          "type": "bytes32"
        }
      ],
      "name": "tokens",
      "outputs": [
        {
          "name": "",
          "type": "address"
        }
      ],
      "payable": false,
      "stateMutability": "view",
      "type": "function"
    },
    {
      "constant": true,
      "inputs": [
        {
          "name": "",
          "type": "uint256"
        }
      ],
      "name": "transactions",
      "outputs": [
        {
          "name": "contract_",
          "type": "address"
        },
        {
          "name": "to_",
          "type": "address"
        },
        {
          "name": "amount_",
          "type": "uint256"
        },
        {
          "name": "failed_",
          "type": "bool"
        }
      ],
      "payable": false,
      "stateMutability": "view",
      "type": "function"
    },
    {
      "constant": true,
      "inputs": [
        {
          "name": "",
          "type": "address"
        },
        {
          "name": "",
          "type": "uint256"
        }
      ],
      "name": "transactionIndexesToSender",
      "outputs": [
        {
          "name": "",
          "type": "uint256"
        }
      ],
      "payable": false,
      "stateMutability": "view",
      "type": "function"
    },
    {
      "constant": true,
      "inputs": [
        {
          "name": "",
          "type": "uint256"
        }
      ],
      "name": "bounties",
      "outputs": [
        {
          "name": "id",
          "type": "uint256"
        },
        {
          "name": "repo_link",
          "type": "string"
        },
        {
          "name": "tag",
          "type": "string"
        },
        {
          "name": "reward_amount",
          "type": "uint256"
        },
        {
          "name": "active",
          "type": "bool"
        },
        {
          "name": "title",
          "type": "string"
        },
        {
          "name": "description",
          "type": "string"
        }
      ],
      "payable": false,
      "stateMutability": "view",
      "type": "function"
    },
    {
      "constant": true,
      "inputs": [
        {
          "name": "",
          "type": "uint256"
        }
      ],
      "name": "bountyIDs",
      "outputs": [
        {
          "name": "",
          "type": "uint256"
        }
      ],
      "payable": false,
      "stateMutability": "view",
      "type": "function"
    },
    {
      "constant": false,
      "inputs": [
        {
          "name": "_newOwner",
          "type": "address"
        }
      ],
      "name": "transferOwnership",
      "outputs": [],
      "payable": false,
      "stateMutability": "nonpayable",
      "type": "function"
    },
    {
      "inputs": [],
      "payable": false,
      "stateMutability": "nonpayable",
      "type": "constructor"
    },
    {
      "anonymous": false,
      "inputs": [
        {
          "indexed": true,
          "name": "from_",
          "type": "address"
        },
        {
          "indexed": true,
          "name": "to_",
          "type": "address"
        },
        {
          "indexed": false,
          "name": "amount_",
          "type": "uint256"
        }
      ],
      "name": "TransferSuccessful",
      "type": "event"
    },
    {
      "anonymous": false,
      "inputs": [
        {
          "indexed": true,
          "name": "from_",
          "type": "address"
        },
        {
          "indexed": true,
          "name": "to_",
          "type": "address"
        },
        {
          "indexed": false,
          "name": "amount_",
          "type": "uint256"
        }
      ],
      "name": "TransferFailed",
      "type": "event"
    },
    {
      "anonymous": false,
      "inputs": [
        {
          "indexed": false,
          "name": "_bounty_id",
          "type": "uint256"
        },
        {
          "indexed": false,
          "name": "_owner",
          "type": "address"
        },
        {
          "indexed": false,
          "name": "_reward",
          "type": "uint256"
        }
      ],
      "name": "NewBounty",
      "type": "event"
    },
    {
      "anonymous": false,
      "inputs": [
        {
          "indexed": true,
          "name": "previousOwner",
          "type": "address"
        }
      ],
      "name": "OwnershipRenounced",
      "type": "event"
    },
    {
      "anonymous": false,
      "inputs": [
        {
          "indexed": true,
          "name": "previousOwner",
          "type": "address"
        },
        {
          "indexed": true,
          "name": "newOwner",
          "type": "address"
        }
      ],
      "name": "OwnershipTransferred",
      "type": "event"
    },
    {
      "anonymous": false,
      "inputs": [
        {
          "indexed": true,
          "name": "id",
          "type": "bytes32"
        }
      ],
      "name": "ChainlinkRequested",
      "type": "event"
    },
    {
      "anonymous": false,
      "inputs": [
        {
          "indexed": true,
          "name": "id",
          "type": "bytes32"
        }
      ],
      "name": "ChainlinkFulfilled",
      "type": "event"
    },
    {
      "anonymous": false,
      "inputs": [
        {
          "indexed": true,
          "name": "id",
          "type": "bytes32"
        }
      ],
      "name": "ChainlinkCancelled",
      "type": "event"
    },
    {
      "constant": false,
      "inputs": [
        {
          "name": "symbol_",
          "type": "bytes32"
        },
        {
          "name": "address_",
          "type": "address"
        }
      ],
      "name": "addNewToken",
      "outputs": [
        {
          "name": "",
          "type": "bool"
        }
      ],
      "payable": false,
      "stateMutability": "nonpayable",
      "type": "function"
    },
    {
      "constant": false,
      "inputs": [
        {
          "name": "symbol_",
          "type": "bytes32"
        }
      ],
      "name": "removeToken",
      "outputs": [
        {
          "name": "",
          "type": "bool"
        }
      ],
      "payable": false,
      "stateMutability": "nonpayable",
      "type": "function"
    },
    {
      "constant": false,
      "inputs": [
        {
          "name": "symbol_",
          "type": "bytes32"
        },
        {
          "name": "to_",
          "type": "address"
        },
        {
          "name": "amount_",
          "type": "uint256"
        }
      ],
      "name": "transferTokens",
      "outputs": [],
      "payable": false,
      "stateMutability": "nonpayable",
      "type": "function"
    },
    {
      "constant": false,
      "inputs": [
        {
          "name": "beneficiary",
          "type": "address"
        }
      ],
      "name": "withdraw",
      "outputs": [],
      "payable": true,
      "stateMutability": "payable",
      "type": "function"
    },
    {
      "constant": false,
      "inputs": [
        {
          "name": "repoLink",
          "type": "string"
        },
        {
          "name": "reward",
          "type": "uint256"
        },
        {
          "name": "PR_tag",
          "type": "string"
        },
        {
          "name": "title",
          "type": "string"
        },
        {
          "name": "description",
          "type": "string"
        }
      ],
      "name": "CreateBounty",
      "outputs": [
        {
          "name": "bountyID",
          "type": "uint256"
        }
      ],
      "payable": false,
      "stateMutability": "nonpayable",
      "type": "function"
    },
    {
      "constant": true,
      "inputs": [
        {
          "name": "meister",
          "type": "address"
        }
      ],
      "name": "GetMeisterBounties",
      "outputs": [
        {
          "name": "bountyIds",
          "type": "uint256[]"
        }
      ],
      "payable": false,
      "stateMutability": "view",
      "type": "function"
    },
    {
      "constant": true,
      "inputs": [
        {
          "name": "repoLink",
          "type": "string"
        }
      ],
      "name": "GetRepoBounties",
      "outputs": [
        {
          "name": "bountyIds",
          "type": "uint256[]"
        }
      ],
      "payable": false,
      "stateMutability": "view",
      "type": "function"
    },
    {
      "constant": true,
      "inputs": [
        {
          "name": "bountyId",
          "type": "uint256"
        }
      ],
      "name": "GetBountyInfo",
      "outputs": [
        {
          "name": "id",
          "type": "uint256"
        },
        {
          "name": "repoLink",
          "type": "string"
        },
        {
          "name": "tag",
          "type": "string"
        },
        {
          "name": "reward",
          "type": "uint256"
        },
        {
          "name": "active",
          "type": "bool"
        },
        {
          "name": "title",
          "type": "string"
        },
        {
          "name": "description",
          "type": "string"
        }
      ],
      "payable": false,
      "stateMutability": "view",
      "type": "function"
    },
    {
      "constant": true,
      "inputs": [],
      "name": "getChainlinkToken",
      "outputs": [
        {
          "name": "",
          "type": "address"
        }
      ],
      "payable": false,
      "stateMutability": "view",
      "type": "function"
    },
    {
      "constant": false,
      "inputs": [],
      "name": "withdrawLink",
      "outputs": [],
      "payable": false,
      "stateMutability": "nonpayable",
      "type": "function"
    },
    {
      "constant": false,
      "inputs": [
        {
          "name": "_requestId",
          "type": "bytes32"
        },
        {
          "name": "_payment",
          "type": "uint256"
        },
        {
          "name": "_callbackFunctionId",
          "type": "bytes4"
        },
        {
          "name": "_expiration",
          "type": "uint256"
        }
      ],
      "name": "cancelRequest",
      "outputs": [],
      "payable": false,
      "stateMutability": "nonpayable",
      "type": "function"
    }
  ],
  "bytecode": "0x608060405260016004553480156200001657600080fd5b50600033600660006101000a81548173ffffffffffffffffffffffffffffffffffffffff021916908373ffffffffffffffffffffffffffffffffffffffff16021790555062000073620000fb640100000000026401000000009004565b620000c26040805190810160405280600381526020017f4441490000000000000000000000000000000000000000000000000000000000815250620001cc640100000000026401000000009004565b9050620000f381734dc966317b2c55105fad4835f651022acd632120620001f9640100000000026401000000009004565b505062000300565b620001ca73c89bd4e1632d3a43cb03aaad5262cbe4038bc57173ffffffffffffffffffffffffffffffffffffffff166338cc48316040518163ffffffff167c0100000000000000000000000000000000000000000000000000000000028152600401602060405180830381600087803b1580156200017857600080fd5b505af11580156200018d573d6000803e3d6000fd5b505050506040513d6020811015620001a457600080fd5b8101908080519060200190929190505050620002bc640100000000026401000000009004565b565b60006060829050600081511415620001eb5760006001029150620001f3565b602083015191505b50919050565b6000600660009054906101000a900473ffffffffffffffffffffffffffffffffffffffff1673ffffffffffffffffffffffffffffffffffffffff163373ffffffffffffffffffffffffffffffffffffffff161415156200025857600080fd5b8160096000856000191660001916815260200190815260200160002060006101000a81548173ffffffffffffffffffffffffffffffffffffffff021916908373ffffffffffffffffffffffffffffffffffffffff1602179055506001905092915050565b80600260006101000a81548173ffffffffffffffffffffffffffffffffffffffff021916908373ffffffffffffffffffffffffffffffffffffffff16021790555050565b612ff080620003106000396000f300608060405260043610610128576000357c0100000000000000000000000000000000000000000000000000000000900463ffffffff1680630a4767d01461012d578063165d35e11461018e5780631bbc4b83146101e55780631f9988c91461023c578063224e74621461029757806351cff8d9146102e057806364bb3e7314610316578063715018a6146103835780638830d52b1461039a5780638da5cb5b1461059d5780638dc654a2146105f4578063904194a31461060b5780639ace38c21461067c578063b082443b1461072e578063c479643714610797578063dc2f8744146107f8578063e43e8d99146109fb578063ec2bd98114610b54578063ec65d0f814610bec578063ecb0fbdc14610c5a578063f1c0099a14610c9b578063f2fde38b14610d59575b600080fd5b34801561013957600080fd5b50610178600480360381019080803573ffffffffffffffffffffffffffffffffffffffff16906020019092919080359060200190929190505050610d9c565b6040518082815260200191505060405180910390f35b34801561019a57600080fd5b506101a3610dcc565b604051808273ffffffffffffffffffffffffffffffffffffffff1673ffffffffffffffffffffffffffffffffffffffff16815260200191505060405180910390f35b3480156101f157600080fd5b506101fa610ddb565b604051808273ffffffffffffffffffffffffffffffffffffffff1673ffffffffffffffffffffffffffffffffffffffff16815260200191505060405180910390f35b34801561024857600080fd5b506102956004803603810190808035600019169060200190929190803573ffffffffffffffffffffffffffffffffffffffff16906020019092919080359060200190929190505050610e01565b005b3480156102a357600080fd5b506102c66004803603810190808035600019169060200190929190505050611418565b604051808215151515815260200191505060405180910390f35b610314600480360381019080803573ffffffffffffffffffffffffffffffffffffffff16906020019092919050505061151e565b005b34801561032257600080fd5b50610341600480360381019080803590602001909291905050506115db565b604051808273ffffffffffffffffffffffffffffffffffffffff1673ffffffffffffffffffffffffffffffffffffffff16815260200191505060405180910390f35b34801561038f57600080fd5b50610398611619565b005b3480156103a657600080fd5b506103c56004803603810190808035906020019092919050505061171e565b60405180888152602001806020018060200187815260200186151515158152602001806020018060200185810385528b818151815260200191508051906020019080838360005b8381101561042757808201518184015260208101905061040c565b50505050905090810190601f1680156104545780820380516001836020036101000a031916815260200191505b5085810384528a818151815260200191508051906020019080838360005b8381101561048d578082015181840152602081019050610472565b50505050905090810190601f1680156104ba5780820380516001836020036101000a031916815260200191505b50858103835287818151815260200191508051906020019080838360005b838110156104f35780820151818401526020810190506104d8565b50505050905090810190601f1680156105205780820380516001836020036101000a031916815260200191505b50858103825286818151815260200191508051906020019080838360005b8381101561055957808201518184015260208101905061053e565b50505050905090810190601f1680156105865780820380516001836020036101000a031916815260200191505b509b50505050505050505050505060405180910390f35b3480156105a957600080fd5b506105b2611a52565b604051808273ffffffffffffffffffffffffffffffffffffffff1673ffffffffffffffffffffffffffffffffffffffff16815260200191505060405180910390f35b34801561060057600080fd5b50610609611a78565b005b34801561061757600080fd5b5061063a6004803603810190808035600019169060200190929190505050611d0a565b604051808273ffffffffffffffffffffffffffffffffffffffff1673ffffffffffffffffffffffffffffffffffffffff16815260200191505060405180910390f35b34801561068857600080fd5b506106a760048036038101908080359060200190929190505050611d3d565b604051808573ffffffffffffffffffffffffffffffffffffffff1673ffffffffffffffffffffffffffffffffffffffff1681526020018473ffffffffffffffffffffffffffffffffffffffff1673ffffffffffffffffffffffffffffffffffffffff1681526020018381526020018215151515815260200194505050505060405180910390f35b34801561073a57600080fd5b5061077d6004803603810190808035600019169060200190929190803573ffffffffffffffffffffffffffffffffffffffff169060200190929190505050611dc9565b604051808215151515815260200191505060405180910390f35b3480156107a357600080fd5b506107e2600480360381019080803573ffffffffffffffffffffffffffffffffffffffff16906020019092919080359060200190929190505050611e8b565b6040518082815260200191505060405180910390f35b34801561080457600080fd5b5061082360048036038101908080359060200190929190505050611ebb565b60405180888152602001806020018060200187815260200186151515158152602001806020018060200185810385528b818151815260200191508051906020019080838360005b8381101561088557808201518184015260208101905061086a565b50505050905090810190601f1680156108b25780820380516001836020036101000a031916815260200191505b5085810384528a818151815260200191508051906020019080838360005b838110156108eb5780820151818401526020810190506108d0565b50505050905090810190601f1680156109185780820380516001836020036101000a031916815260200191505b50858103835287818151815260200191508051906020019080838360005b83811015610951578082015181840152602081019050610936565b50505050905090810190601f16801561097e5780820380516001836020036101000a031916815260200191505b50858103825286818151815260200191508051906020019080838360005b838110156109b757808201518184015260208101905061099c565b50505050905090810190601f1680156109e45780820380516001836020036101000a031916815260200191505b509b50505050505050505050505060405180910390f35b348015610a0757600080fd5b50610b3e600480360381019080803590602001908201803590602001908080601f016020809104026020016040519081016040528093929190818152602001838380828437820191505050505050919291929080359060200190929190803590602001908201803590602001908080601f0160208091040260200160405190810160405280939291908181526020018383808284378201915050505050509192919290803590602001908201803590602001908080601f0160208091040260200160405190810160405280939291908181526020018383808284378201915050505050509192919290803590602001908201803590602001908080601f016020809104026020016040519081016040528093929190818152602001838380828437820191505050505050919291929050505061216a565b6040518082815260200191505060405180910390f35b348015610b6057600080fd5b50610b95600480360381019080803573ffffffffffffffffffffffffffffffffffffffff169060200190929190505050612672565b6040518080602001828103825283818151815260200191508051906020019060200280838360005b83811015610bd8578082015181840152602081019050610bbd565b505050509050019250505060405180910390f35b348015610bf857600080fd5b50610c5860048036038101908080356000191690602001909291908035906020019092919080357bffffffffffffffffffffffffffffffffffffffffffffffffffffffff1916906020019092919080359060200190929190505050612709565b005b348015610c6657600080fd5b50610c8560048036038101908080359060200190929190505050612777565b6040518082815260200191505060405180910390f35b348015610ca757600080fd5b50610d02600480360381019080803590602001908201803590602001908080601f016020809104026020016040519081016040528093929190818152602001838380828437820191505050505050919291929050505061279a565b6040518080602001828103825283818151815260200191508051906020019060200280838360005b83811015610d45578082015181840152602081019050610d2a565b505050509050019250505060405180910390f35b348015610d6557600080fd5b50610d9a600480360381019080803573ffffffffffffffffffffffffffffffffffffffff16906020019092919050505061285d565b005b600f60205281600052604060002081815481101515610db757fe5b90600052602060002001600091509150505481565b6000610dd66128c5565b905090565b600a60009054906101000a900473ffffffffffffffffffffffffffffffffffffffff1681565b60008060008060096000886000191660001916815260200190815260200160002060009054906101000a900473ffffffffffffffffffffffffffffffffffffffff1673ffffffffffffffffffffffffffffffffffffffff1614151515610e6657600080fd5b600084111515610e7557600080fd5b60096000876000191660001916815260200190815260200160002060009054906101000a900473ffffffffffffffffffffffffffffffffffffffff16925033915082600a60006101000a81548173ffffffffffffffffffffffffffffffffffffffff021916908373ffffffffffffffffffffffffffffffffffffffff160217905550600b6080604051908101604052808573ffffffffffffffffffffffffffffffffffffffff1681526020018773ffffffffffffffffffffffffffffffffffffffff168152602001868152602001600115158152509080600181540180825580915050906001820390600052602060002090600402016000909192909190915060008201518160000160006101000a81548173ffffffffffffffffffffffffffffffffffffffff021916908373ffffffffffffffffffffffffffffffffffffffff16021790555060208201518160010160006101000a81548173ffffffffffffffffffffffffffffffffffffffff021916908373ffffffffffffffffffffffffffffffffffffffff1602179055506040820151816002015560608201518160030160006101000a81548160ff02191690831515021790555050509050600760008373ffffffffffffffffffffffffffffffffffffffff1673ffffffffffffffffffffffffffffffffffffffff168152602001908152602001600020600182039080600181540180825580915050906001820390600052602060002001600090919290919091505550600a60009054906101000a900473ffffffffffffffffffffffffffffffffffffffff1673ffffffffffffffffffffffffffffffffffffffff1663dd62ed3e83306040518363ffffffff167c0100000000000000000000000000000000000000000000000000000000028152600401808373ffffffffffffffffffffffffffffffffffffffff1673ffffffffffffffffffffffffffffffffffffffff1681526020018273ffffffffffffffffffffffffffffffffffffffff1673ffffffffffffffffffffffffffffffffffffffff16815260200192505050602060405180830381600087803b15801561118e57600080fd5b505af11580156111a2573d6000803e3d6000fd5b505050506040513d60208110156111b857600080fd5b810190808051906020019092919050505084111561123a578473ffffffffffffffffffffffffffffffffffffffff168273ffffffffffffffffffffffffffffffffffffffff167fbf182be802245e8ed88e4b8d3e4344c0863dd2a70334f089fd07265389306fcf866040518082815260200191505060405180910390a3600080fd5b600a60009054906101000a900473ffffffffffffffffffffffffffffffffffffffff1673ffffffffffffffffffffffffffffffffffffffff166323b872dd8387876040518463ffffffff167c0100000000000000000000000000000000000000000000000000000000028152600401808473ffffffffffffffffffffffffffffffffffffffff1673ffffffffffffffffffffffffffffffffffffffff1681526020018373ffffffffffffffffffffffffffffffffffffffff1673ffffffffffffffffffffffffffffffffffffffff1681526020018281526020019350505050602060405180830381600087803b15801561133357600080fd5b505af1158015611347573d6000803e3d6000fd5b505050506040513d602081101561135d57600080fd5b8101908080519060200190929190505050506000600b6001830381548110151561138357fe5b906000526020600020906004020160030160006101000a81548160ff0219169083151502179055508473ffffffffffffffffffffffffffffffffffffffff168273ffffffffffffffffffffffffffffffffffffffff167fd6d3eb25a413c05d8107fc49deb2789bef7f612582b2482804c0b0423b6638ee866040518082815260200191505060405180910390a3505050505050565b6000600660009054906101000a900473ffffffffffffffffffffffffffffffffffffffff1673ffffffffffffffffffffffffffffffffffffffff163373ffffffffffffffffffffffffffffffffffffffff1614151561147657600080fd5b600060096000846000191660001916815260200190815260200160002060009054906101000a900473ffffffffffffffffffffffffffffffffffffffff1673ffffffffffffffffffffffffffffffffffffffff16141515156114d757600080fd5b60096000836000191660001916815260200190815260200160002060006101000a81549073ffffffffffffffffffffffffffffffffffffffff021916905560019050919050565b600660009054906101000a900473ffffffffffffffffffffffffffffffffffffffff1673ffffffffffffffffffffffffffffffffffffffff163373ffffffffffffffffffffffffffffffffffffffff1614151561157a57600080fd5b8073ffffffffffffffffffffffffffffffffffffffff166108fc3073ffffffffffffffffffffffffffffffffffffffff16319081150290604051600060405180830381858888f193505050501580156115d7573d6000803e3d6000fd5b5050565b600e818154811015156115ea57fe5b906000526020600020016000915054906101000a900473ffffffffffffffffffffffffffffffffffffffff1681565b600660009054906101000a900473ffffffffffffffffffffffffffffffffffffffff1673ffffffffffffffffffffffffffffffffffffffff163373ffffffffffffffffffffffffffffffffffffffff1614151561167557600080fd5b600660009054906101000a900473ffffffffffffffffffffffffffffffffffffffff1673ffffffffffffffffffffffffffffffffffffffff167ff8df31144d9c2f0f6b59d69b8b98abd5459d07f2742c4df920b25aae33c6482060405160405180910390a26000600660006101000a81548173ffffffffffffffffffffffffffffffffffffffff021916908373ffffffffffffffffffffffffffffffffffffffff160217905550565b6000606080600080606080611731612edf565b601160008a815260200190815260200160002060e0604051908101604052908160008201548152602001600182018054600181600116156101000203166002900480601f0160208091040260200160405190810160405280929190818152602001828054600181600116156101000203166002900480156117f35780601f106117c8576101008083540402835291602001916117f3565b820191906000526020600020905b8154815290600101906020018083116117d657829003601f168201915b50505050508152602001600282018054600181600116156101000203166002900480601f0160208091040260200160405190810160405280929190818152602001828054600181600116156101000203166002900480156118955780601f1061186a57610100808354040283529160200191611895565b820191906000526020600020905b81548152906001019060200180831161187857829003601f168201915b50505050508152602001600382015481526020016004820160009054906101000a900460ff16151515158152602001600582018054600181600116156101000203166002900480601f01602080910402602001604051908101604052809291908181526020018280546001816001161561010002031660029004801561195c5780601f106119315761010080835404028352916020019161195c565b820191906000526020600020905b81548152906001019060200180831161193f57829003601f168201915b50505050508152602001600682018054600181600116156101000203166002900480601f0160208091040260200160405190810160405280929190818152602001828054600181600116156101000203166002900480156119fe5780601f106119d3576101008083540402835291602001916119fe565b820191906000526020600020905b8154815290600101906020018083116119e157829003601f168201915b5050505050815250509050806000015181602001518260400151836060015184608001518560a001518660c00151859550849450819150809050975097509750975097509750975050919395979092949650565b600860009054906101000a900473ffffffffffffffffffffffffffffffffffffffff1681565b6000600660009054906101000a900473ffffffffffffffffffffffffffffffffffffffff1673ffffffffffffffffffffffffffffffffffffffff163373ffffffffffffffffffffffffffffffffffffffff16141515611ad657600080fd5b611ade6128c5565b90508073ffffffffffffffffffffffffffffffffffffffff1663a9059cbb338373ffffffffffffffffffffffffffffffffffffffff166370a08231306040518263ffffffff167c0100000000000000000000000000000000000000000000000000000000028152600401808273ffffffffffffffffffffffffffffffffffffffff1673ffffffffffffffffffffffffffffffffffffffff168152602001915050602060405180830381600087803b158015611b9857600080fd5b505af1158015611bac573d6000803e3d6000fd5b505050506040513d6020811015611bc257600080fd5b81019080805190602001909291905050506040518363ffffffff167c0100000000000000000000000000000000000000000000000000000000028152600401808373ffffffffffffffffffffffffffffffffffffffff1673ffffffffffffffffffffffffffffffffffffffff16815260200182815260200192505050602060405180830381600087803b158015611c5857600080fd5b505af1158015611c6c573d6000803e3d6000fd5b505050506040513d6020811015611c8257600080fd5b81019080805190602001909291905050501515611d07576040517f08c379a00000000000000000000000000000000000000000000000000000000081526004018080602001828103825260128152602001807f556e61626c6520746f207472616e73666572000000000000000000000000000081525060200191505060405180910390fd5b50565b60096020528060005260406000206000915054906101000a900473ffffffffffffffffffffffffffffffffffffffff1681565b600b81815481101515611d4c57fe5b90600052602060002090600402016000915090508060000160009054906101000a900473ffffffffffffffffffffffffffffffffffffffff16908060010160009054906101000a900473ffffffffffffffffffffffffffffffffffffffff16908060020154908060030160009054906101000a900460ff16905084565b6000600660009054906101000a900473ffffffffffffffffffffffffffffffffffffffff1673ffffffffffffffffffffffffffffffffffffffff163373ffffffffffffffffffffffffffffffffffffffff16141515611e2757600080fd5b8160096000856000191660001916815260200190815260200160002060006101000a81548173ffffffffffffffffffffffffffffffffffffffff021916908373ffffffffffffffffffffffffffffffffffffffff1602179055506001905092915050565b600760205281600052604060002081815481101515611ea657fe5b90600052602060002001600091509150505481565b6011602052806000526040600020600091509050806000015490806001018054600181600116156101000203166002900480601f016020809104026020016040519081016040528092919081815260200182805460018160011615610100020316600290048015611f6d5780601f10611f4257610100808354040283529160200191611f6d565b820191906000526020600020905b815481529060010190602001808311611f5057829003601f168201915b505050505090806002018054600181600116156101000203166002900480601f01602080910402602001604051908101604052809291908181526020018280546001816001161561010002031660029004801561200b5780601f10611fe05761010080835404028352916020019161200b565b820191906000526020600020905b815481529060010190602001808311611fee57829003601f168201915b5050505050908060030154908060040160009054906101000a900460ff1690806005018054600181600116156101000203166002900480601f0160208091040260200160405190810160405280929190818152602001828054600181600116156101000203166002900480156120c25780601f10612097576101008083540402835291602001916120c2565b820191906000526020600020905b8154815290600101906020018083116120a557829003601f168201915b505050505090806006018054600181600116156101000203166002900480601f0160208091040260200160405190810160405280929190818152602001828054600181600116156101000203166002900480156121605780601f1061213557610100808354040283529160200191612160565b820191906000526020600020905b81548152906001019060200180831161214357829003601f168201915b5050505050905087565b6000612174612edf565b60008060008060e060405190810160405280600d8054905081526020018c81526020018a81526020018b815260200160011515815260200189815260200188815250945060108b6040518082805190602001908083835b6020831015156121f057805182526020820191506020810190506020830392506121cb565b6001836020036101000a03801982511681845116808217855250505050505090500191505090815260200160405180910390208054905093506000841415156123c657600092505b838310156123c55760108b6040518082805190602001908083835b6020831015156122785780518252602082019150602081019050602083039250612253565b6001836020036101000a0380198251168184511680821785525050505050509050019150509081526020016040518091039020838154811015156122b857fe5b90600052602060002001549150600061237f601160008581526020019081526020016000206002018054600181600116156101000203166002900480601f0160208091040260200160405190810160405280929190818152602001828054600181600116156101000203166002900480156123745780601f1061234957610100808354040283529160200191612374565b820191906000526020600020905b81548152906001019060200180831161235757829003601f168201915b50505050508b6128ef565b1415806123ad57506011600083815260200190815260200160002060040160009054906101000a900460ff16155b15156123b857600080fd5b8280600101935050612238565b5b60108b6040518082805190602001908083835b6020831015156123fe57805182526020820191506020810190506020830392506123d9565b6001836020036101000a0380198251168184511680821785525050505050509050019150509081526020016040518091039020856000015190806001815401808255809150509060018203906000526020600020016000909192909190915055506000600f60003373ffffffffffffffffffffffffffffffffffffffff1673ffffffffffffffffffffffffffffffffffffffff1681526020019081526020016000208054905014156124b3576124b2612ba6565b5b600f60003373ffffffffffffffffffffffffffffffffffffffff1673ffffffffffffffffffffffffffffffffffffffff16815260200190815260200160002085600001519080600181540180825580915050906001820390600052602060002001600090919290919091505550600d8560000151908060018154018082558091505090600182039060005260206000200160009091929091909150555084601160008760000151815260200190815260200160002060008201518160000155602082015181600101908051906020019061258e929190612f1f565b5060408201518160020190805190602001906125ab929190612f1f565b506060820151816003015560808201518160040160006101000a81548160ff02191690831515021790555060a08201518160050190805190602001906125f2929190612f1f565b5060c082015181600601908051906020019061260f929190612f1f565b509050506126516040805190810160405280600381526020017f4441490000000000000000000000000000000000000000000000000000000000815250612c0e565b905061265d818b612c39565b84600001519550505050505095945050505050565b6060600f60008373ffffffffffffffffffffffffffffffffffffffff1673ffffffffffffffffffffffffffffffffffffffff1681526020019081526020016000208054806020026020016040519081016040528092919081815260200182805480156126fd57602002820191906000526020600020905b8154815260200190600101908083116126e9575b50505050509050919050565b600660009054906101000a900473ffffffffffffffffffffffffffffffffffffffff1673ffffffffffffffffffffffffffffffffffffffff163373ffffffffffffffffffffffffffffffffffffffff1614151561276557600080fd5b61277184848484612c48565b50505050565b600d8181548110151561278657fe5b906000526020600020016000915090505481565b60606010826040518082805190602001908083835b6020831015156127d457805182526020820191506020810190506020830392506127af565b6001836020036101000a038019825116818451168082178552505050505050905001915050908152602001604051809103902080548060200260200160405190810160405280929190818152602001828054801561285157602002820191906000526020600020905b81548152602001906001019080831161283d575b50505050509050919050565b600660009054906101000a900473ffffffffffffffffffffffffffffffffffffffff1673ffffffffffffffffffffffffffffffffffffffff163373ffffffffffffffffffffffffffffffffffffffff161415156128b957600080fd5b6128c281612de3565b50565b6000600260009054906101000a900473ffffffffffffffffffffffffffffffffffffffff16905090565b600060608060008086935085925083519150818351101561290f57825191505b600090505b81811015612b5257828181518110151561292a57fe5b9060200101517f010000000000000000000000000000000000000000000000000000000000000090047f0100000000000000000000000000000000000000000000000000000000000000027effffffffffffffffffffffffffffffffffffffffffffffffffffffffffffff191684828151811015156129a557fe5b9060200101517f010000000000000000000000000000000000000000000000000000000000000090047f0100000000000000000000000000000000000000000000000000000000000000027effffffffffffffffffffffffffffffffffffffffffffffffffffffffffffff19161015612a40577fffffffffffffffffffffffffffffffffffffffffffffffffffffffffffffffff9450612b9c565b8281815181101515612a4e57fe5b9060200101517f010000000000000000000000000000000000000000000000000000000000000090047f0100000000000000000000000000000000000000000000000000000000000000027effffffffffffffffffffffffffffffffffffffffffffffffffffffffffffff19168482815181101515612ac957fe5b9060200101517f010000000000000000000000000000000000000000000000000000000000000090047f0100000000000000000000000000000000000000000000000000000000000000027effffffffffffffffffffffffffffffffffffffffffffffffffffffffffffff19161115612b455760019450612b9c565b8080600101915050612914565b825184511015612b84577fffffffffffffffffffffffffffffffffffffffffffffffffffffffffffffffff9450612b9c565b825184511115612b975760019450612b9c565b600094505b5050505092915050565b600e3390806001815401808255809150509060018203906000526020600020016000909192909190916101000a81548173ffffffffffffffffffffffffffffffffffffffff021916908373ffffffffffffffffffffffffffffffffffffffff16021790555050565b60006060829050600081511415612c2b5760006001029150612c33565b602083015191505b50919050565b612c44823083610e01565b5050565b600060056000866000191660001916815260200190815260200160002060009054906101000a900473ffffffffffffffffffffffffffffffffffffffff16905060056000866000191660001916815260200190815260200160002060006101000a81549073ffffffffffffffffffffffffffffffffffffffff021916905584600019167fe1fe3afa0f7f761ff0a8b89086790efd5140d2907ebd5b7ff6bfcb5e075fd4c560405160405180910390a28073ffffffffffffffffffffffffffffffffffffffff16636ee4d553868686866040518563ffffffff167c0100000000000000000000000000000000000000000000000000000000028152600401808560001916600019168152602001848152602001837bffffffffffffffffffffffffffffffffffffffffffffffffffffffff19167bffffffffffffffffffffffffffffffffffffffffffffffffffffffff19168152602001828152602001945050505050600060405180830381600087803b158015612dc457600080fd5b505af1158015612dd8573d6000803e3d6000fd5b505050505050505050565b600073ffffffffffffffffffffffffffffffffffffffff168173ffffffffffffffffffffffffffffffffffffffff1614151515612e1f57600080fd5b8073ffffffffffffffffffffffffffffffffffffffff16600660009054906101000a900473ffffffffffffffffffffffffffffffffffffffff1673ffffffffffffffffffffffffffffffffffffffff167f8be0079c531659141344cd1fd0a4f28419497f9722a3daafe3b4186f6b6457e060405160405180910390a380600660006101000a81548173ffffffffffffffffffffffffffffffffffffffff021916908373ffffffffffffffffffffffffffffffffffffffff16021790555050565b60e0604051908101604052806000815260200160608152602001606081526020016000815260200160001515815260200160608152602001606081525090565b828054600181600116156101000203166002900490600052602060002090601f016020900481019282601f10612f6057805160ff1916838001178555612f8e565b82800160010185558215612f8e579182015b82811115612f8d578251825591602001919060010190612f72565b5b509050612f9b9190612f9f565b5090565b612fc191905b80821115612fbd576000816000905550600101612fa5565b5090565b905600a165627a7a723058207822b1d2258bf64e2bf7eb86c63d700e71f7a411ac3a8954e8be41f4710f63800029",
  "source": "pragma solidity >=0.4.0 <0.7.0;\n\nimport \"@chainlink/contracts/src/v0.4/ChainlinkClient.sol\";\nimport \"@chainlink/contracts/src/v0.4/vendor/Ownable.sol\";\nimport \"openzeppelin-solidity/contracts/token/ERC20/ERC20.sol\";\n\ncontract JagerGitClient is ChainlinkClient, Ownable {\n  uint256 constant private ORACLE_PAYMENT = 1 * LINK;\n\n  /**  \n  * @dev Details of each transfer  \n  * @param contract_ contract address of ER20 token to transfer  \n  * @param to_ receiving account  \n  * @param amount_ number of tokens to transfer to_ account  \n  * @param failed_ if transfer was successful or not  \n  */  \n  struct Transfer {  \n    address contract_;  \n    address to_;  \n    uint amount_;  \n    bool failed_;  \n  }\n\n  /**  \n  * @dev a mapping from transaction ID's to the sender address  \n  * that initiates them. Owners can create several transactions  \n  */  \n  mapping(address => uint[]) public transactionIndexesToSender;\n  /**  \n  * @dev a list of all transfers successful or unsuccessful  \n  */  \n\n  address public owner;  \n  \n  /**  \n  * @dev list of all supported tokens for transfer  \n  * @param string token symbol  \n  * @param address contract address of token  \n  */  \n  mapping(bytes32 => address) public tokens; \n\n  ERC20 public ERC20Interface;\n\n  Transfer[] public transactions;\n\n  /**  \n  * @dev Event to notify if transfer successful or failed  \n  * after account approval verified  \n  */  \n  event TransferSuccessful(address indexed from_, address indexed to_, uint256 amount_);  \n  \n  event TransferFailed(address indexed from_, address indexed to_, uint256 amount_);\n\n  /**  \n  * @dev add address of token to list of supported tokens using  \n  * token symbol as identifier in mapping  \n  */  \n  function addNewToken(bytes32 symbol_, address address_) public onlyOwner returns (bool) {  \n    tokens[symbol_] = address_;  \n    \n    return true;  \n  }  \n    \n  /**  \n  * @dev remove address of token we no more support  \n  */  \n  function removeToken(bytes32 symbol_) public onlyOwner returns (bool) {  \n    require(tokens[symbol_] != 0x0);  \n  \n    delete(tokens[symbol_]);  \n    \n    return true;  \n  }  \n    \n  /**  \n  * @dev method that handles transfer of ERC20 tokens to other address  \n  * it assumes the calling address has approved this contract  \n  * as spender  \n  * @param symbol_ identifier mapping to a token contract address  \n  * @param to_ beneficiary address  \n  * @param amount_ numbers of token to transfer  \n  */  \n  function transferTokens(bytes32 symbol_, address to_, uint256 amount_) public {  \n    require(tokens[symbol_] != 0x0);  \n    require(amount_ > 0);  \n    \n    address contract_ = tokens[symbol_];  \n    address from_ = msg.sender;  \n  \n    ERC20Interface = ERC20(contract_);  \n    \n    uint256 transactionId = transactions.push(  \n    Transfer({  \n    contract_:  contract_,  \n          to_: to_,  \n          amount_: amount_,  \n          failed_: true  \n    })  \n  );  \n    transactionIndexesToSender[from_].push(transactionId - 1);  \n    \n    if(amount_ > ERC20Interface.allowance(from_, address(this))) {  \n    emit TransferFailed(from_, to_, amount_);  \n    revert();  \n  }  \n    ERC20Interface.transferFrom(from_, to_, amount_);  \n    \n    transactions[transactionId - 1].failed_ = false;  \n    \n    emit TransferSuccessful(from_, to_, amount_);  \n  }  \n    \n  /**  \n  * @dev withdraw funds from this contract  \n  * @param beneficiary address to receive ether  \n  */  \n  function withdraw(address beneficiary) public payable onlyOwner {  \n    beneficiary.transfer(address(this).balance);  \n  }\n  \n  function depositBounty(bytes32 symbol_, uint256 amount_) private {\n      transferTokens(symbol_, this, amount_);\n  }\n  \n  function cashReward(bytes32 symbol_, address to_, uint256 amount_) private {\n      require(tokens[symbol_] != 0x0);  \n      require(amount_ > 0);  \n    \n      address contract_ = tokens[symbol_]; \n      \n      ERC20Interface = ERC20(contract_);  \n    \n      uint256 transactionId = transactions.push(  \n      Transfer({  \n      contract_:  contract_,  \n          to_: to_,  \n          amount_: amount_,  \n          failed_: true  \n      })  \n    );  \n    \n    if(amount_ > ERC20Interface.balanceOf(address(this))) {  \n      emit TransferFailed(address(this), to_, amount_);  \n      revert();  \n    } \n      \n      ERC20Interface.transferFrom(address(this), to_, amount_);  \n      \n      transactions[transactionId - 1].failed_ = false;  \n    \n      emit TransferSuccessful(address(this), to_, amount_);  \n  }\n\n  uint256 reward_pool;\n  \n  struct Bounty {\n      uint id;\n      string repo_link;\n      string tag;\n      uint reward_amount;\n      bool active;\n      string title;\n      string description;\n  }\n  \n  struct Meister {\n      address id;\n      uint bounties_fulfilled;\n  }\n  \n  uint[] public bountyIDs;\n  address[] public allMeisters;\n  \n  mapping (address => uint[]) public meister_bounty_ids;\n  mapping (string => uint[]) private repo_bounties;\n  mapping (uint => Bounty) public bounties;\n  \n  event NewBounty(uint _bounty_id, address _owner, uint _reward);\n\n  constructor() public Ownable() {\n    setPublicChainlinkToken();\n    bytes32 b = stringToBytes32(\"DAI\");\n    addNewToken(b, address(0x4dC966317B2c55105FAd4835F651022aCD632120));\n  }\n  \n  function AddNewMeister() private {\n      allMeisters.push(msg.sender);\n  }\n  \n  function CreateBounty(string memory repoLink, \n                        uint reward, \n                        string PR_tag,\n                        string title,\n                        string description) public returns (uint bountyID) {\n      Bounty memory bounty = Bounty({\n          id: bountyIDs.length,\n          repo_link: repoLink,\n          tag: PR_tag,\n          reward_amount: reward,\n          active: true,\n          title: title,\n          description: description\n      }); \n\n      uint len = repo_bounties[repoLink].length;\n\n      if(len != 0) {\n        for(uint i = 0; i < len; i++) {\n          uint id = repo_bounties[repoLink][i];\n\n          require(compare(bounties[id].tag, PR_tag) != 0 || !bounties[id].active);\n        }\n      }\n\n      repo_bounties[repoLink].push(bounty.id);\n\n      if (meister_bounty_ids[msg.sender].length == 0) {\n          AddNewMeister();\n      }\n\n      meister_bounty_ids[msg.sender].push(bounty.id);\n      bountyIDs.push(bounty.id);\n      bounties[bounty.id] = bounty;\n      bytes32 b = stringToBytes32(\"DAI\");\n      depositBounty(b, reward);\n      return bounty.id;\n  }\n  \n  function GetMeisterBounties(address meister) public view returns (uint[] memory bountyIds) {\n      return meister_bounty_ids[meister];\n  }\n\n  function GetRepoBounties(string repoLink) public view returns (uint[] memory bountyIds) {\n      return repo_bounties[repoLink];\n  }\n  \n  function GetBountyInfo(uint bountyId) public view returns (uint id, \n                                                        string memory repoLink, \n                                                        string memory tag, \n                                                        uint reward, \n                                                        bool active,\n                                                        string memory title,\n                                                        string memory description) {\n      Bounty memory bounty = bounties[bountyId];\n      return (bounty.id, \n              bounty.repo_link, \n              bounty.tag, \n              bounty.reward_amount, \n              bounty.active,\n              bounty.title,\n              bounty.description);\n  }\n  \n\n  function getChainlinkToken() public view returns (address) {\n    return chainlinkTokenAddress();\n  }\n\n  function withdrawLink() public onlyOwner {\n    LinkTokenInterface link = LinkTokenInterface(chainlinkTokenAddress());\n    require(link.transfer(msg.sender, link.balanceOf(address(this))), \"Unable to transfer\");\n  }\n\n  function cancelRequest(\n    bytes32 _requestId,\n    uint256 _payment,\n    bytes4 _callbackFunctionId,\n    uint256 _expiration\n  )\n    public\n    onlyOwner\n  {\n    cancelChainlinkRequest(_requestId, _payment, _callbackFunctionId, _expiration);\n  }\n\n  function stringToBytes32(string memory source) private pure returns (bytes32 result) {\n    bytes memory tempEmptyStringTest = bytes(source);\n    if (tempEmptyStringTest.length == 0) {\n      return 0x0;\n    }\n\n    assembly { // solhint-disable-line no-inline-assembly\n      result := mload(add(source, 32))\n    }\n  }\n\n  function compare(string _a, string _b) private pure returns (int) {\n        bytes memory a = bytes(_a);\n        bytes memory b = bytes(_b);\n        uint minLength = a.length;\n        if (b.length < minLength) minLength = b.length;\n        //@todo unroll the loop into increments of 32 and do full 32 byte comparisons\n        for (uint i = 0; i < minLength; i ++)\n            if (a[i] < b[i])\n                return -1;\n            else if (a[i] > b[i])\n                return 1;\n        if (a.length < b.length)\n            return -1;\n        else if (a.length > b.length)\n            return 1;\n        else\n            return 0;\n    }\n\n}\n",
  "sourcePath": "C:/Users/parke/Desktop/programming/mock/contracts/JagerGitClient.sol",
  "compiler": {
    "name": "solc",
    "version": "0.4.24+commit.e67f0147.Emscripten.clang"
  },
  "schemaVersion": "3.2.3",
  "updatedAt": "2020-09-27T02:25:17.413Z",
  "networkType": "ethereum",
  "devdoc": {
    "methods": {
      "addNewToken(bytes32,address)": {
        "details": "add address of token to list of supported tokens using   token symbol as identifier in mapping  "
      },
      "removeToken(bytes32)": {
        "details": "remove address of token we no more support  "
      },
      "renounceOwnership()": {
        "details": "Allows the current owner to relinquish control of the contract."
      },
      "transferOwnership(address)": {
        "details": "Allows the current owner to transfer control of the contract to a newOwner.",
        "params": {
          "_newOwner": "The address to transfer ownership to."
        }
      },
      "transferTokens(bytes32,address,uint256)": {
        "details": "method that handles transfer of ERC20 tokens to other address   it assumes the calling address has approved this contract   as spender  ",
        "params": {
          "amount_": "numbers of token to transfer  ",
          "symbol_": "identifier mapping to a token contract address  ",
          "to_": "beneficiary address  "
        }
      },
      "withdraw(address)": {
        "details": "withdraw funds from this contract  ",
        "params": {
          "beneficiary": "address to receive ether  "
        }
      }
    }
  },
  "userdoc": {
    "methods": {
      "renounceOwnership()": {
        "notice": "Renouncing to ownership will leave the contract without an owner. It will not be possible to call the functions with the `onlyOwner` modifier anymore."
      }
    }
  }
}